{
  "_format": "hh-sol-artifact-1",
  "contractName": "DFToken",
  "sourceName": "contracts/DFToken.sol",
  "abi": [
    {
      "inputs": [],
      "stateMutability": "nonpayable",
      "type": "constructor"
    },
    {
      "inputs": [
        {
          "internalType": "address",
          "name": "spender",
          "type": "address"
        },
        {
          "internalType": "uint256",
          "name": "allowance",
          "type": "uint256"
        },
        {
          "internalType": "uint256",
          "name": "needed",
          "type": "uint256"
        }
      ],
      "name": "ERC20InsufficientAllowance",
      "type": "error"
    },
    {
      "inputs": [
        {
          "internalType": "address",
          "name": "sender",
          "type": "address"
        },
        {
          "internalType": "uint256",
          "name": "balance",
          "type": "uint256"
        },
        {
          "internalType": "uint256",
          "name": "needed",
          "type": "uint256"
        }
      ],
      "name": "ERC20InsufficientBalance",
      "type": "error"
    },
    {
      "inputs": [
        {
          "internalType": "address",
          "name": "approver",
          "type": "address"
        }
      ],
      "name": "ERC20InvalidApprover",
      "type": "error"
    },
    {
      "inputs": [
        {
          "internalType": "address",
          "name": "receiver",
          "type": "address"
        }
      ],
      "name": "ERC20InvalidReceiver",
      "type": "error"
    },
    {
      "inputs": [
        {
          "internalType": "address",
          "name": "sender",
          "type": "address"
        }
      ],
      "name": "ERC20InvalidSender",
      "type": "error"
    },
    {
      "inputs": [
        {
          "internalType": "address",
          "name": "spender",
          "type": "address"
        }
      ],
      "name": "ERC20InvalidSpender",
      "type": "error"
    },
    {
      "inputs": [
        {
          "internalType": "address",
          "name": "owner",
          "type": "address"
        }
      ],
      "name": "OwnableInvalidOwner",
      "type": "error"
    },
    {
      "inputs": [
        {
          "internalType": "address",
          "name": "account",
          "type": "address"
        }
      ],
      "name": "OwnableUnauthorizedAccount",
      "type": "error"
    },
    {
      "anonymous": false,
      "inputs": [
        {
          "indexed": true,
          "internalType": "address",
          "name": "owner",
          "type": "address"
        },
        {
          "indexed": true,
          "internalType": "address",
          "name": "spender",
          "type": "address"
        },
        {
          "indexed": false,
          "internalType": "uint256",
          "name": "value",
          "type": "uint256"
        }
      ],
      "name": "Approval",
      "type": "event"
    },
    {
      "anonymous": false,
      "inputs": [
        {
          "indexed": true,
          "internalType": "address",
          "name": "previousOwner",
          "type": "address"
        },
        {
          "indexed": true,
          "internalType": "address",
          "name": "newOwner",
          "type": "address"
        }
      ],
      "name": "OwnershipTransferred",
      "type": "event"
    },
    {
      "anonymous": false,
      "inputs": [
        {
          "indexed": true,
          "internalType": "address",
          "name": "from",
          "type": "address"
        },
        {
          "indexed": true,
          "internalType": "address",
          "name": "to",
          "type": "address"
        },
        {
          "indexed": false,
          "internalType": "uint256",
          "name": "value",
          "type": "uint256"
        }
      ],
      "name": "Transfer",
      "type": "event"
    },
    {
      "inputs": [],
      "name": "CLAIM_AMOUNT",
      "outputs": [
        {
          "internalType": "uint256",
          "name": "",
          "type": "uint256"
        }
      ],
      "stateMutability": "view",
      "type": "function"
    },
    {
      "inputs": [
        {
          "internalType": "address",
          "name": "owner",
          "type": "address"
        },
        {
          "internalType": "address",
          "name": "spender",
          "type": "address"
        }
      ],
      "name": "allowance",
      "outputs": [
        {
          "internalType": "uint256",
          "name": "",
          "type": "uint256"
        }
      ],
      "stateMutability": "view",
      "type": "function"
    },
    {
      "inputs": [
        {
          "internalType": "address",
          "name": "spender",
          "type": "address"
        },
        {
          "internalType": "uint256",
          "name": "value",
          "type": "uint256"
        }
      ],
      "name": "approve",
      "outputs": [
        {
          "internalType": "bool",
          "name": "",
          "type": "bool"
        }
      ],
      "stateMutability": "nonpayable",
      "type": "function"
    },
    {
      "inputs": [
        {
          "internalType": "address",
          "name": "account",
          "type": "address"
        }
      ],
      "name": "balanceOf",
      "outputs": [
        {
          "internalType": "uint256",
          "name": "",
          "type": "uint256"
        }
      ],
      "stateMutability": "view",
      "type": "function"
    },
    {
      "inputs": [
        {
          "internalType": "address",
          "name": "to",
          "type": "address"
        },
        {
          "internalType": "uint256",
          "name": "amount",
          "type": "uint256"
        }
      ],
      "name": "claim",
      "outputs": [],
      "stateMutability": "nonpayable",
      "type": "function"
    },
    {
      "inputs": [],
      "name": "decimals",
      "outputs": [
        {
          "internalType": "uint8",
          "name": "",
          "type": "uint8"
        }
      ],
      "stateMutability": "view",
      "type": "function"
    },
    {
      "inputs": [],
      "name": "name",
      "outputs": [
        {
          "internalType": "string",
          "name": "",
          "type": "string"
        }
      ],
      "stateMutability": "view",
      "type": "function"
    },
    {
      "inputs": [],
      "name": "owner",
      "outputs": [
        {
          "internalType": "address",
          "name": "",
          "type": "address"
        }
      ],
      "stateMutability": "view",
      "type": "function"
    },
    {
      "inputs": [],
      "name": "renounceOwnership",
      "outputs": [],
      "stateMutability": "nonpayable",
      "type": "function"
    },
    {
      "inputs": [],
      "name": "symbol",
      "outputs": [
        {
          "internalType": "string",
          "name": "",
          "type": "string"
        }
      ],
      "stateMutability": "view",
      "type": "function"
    },
    {
      "inputs": [],
      "name": "totalSupply",
      "outputs": [
        {
          "internalType": "uint256",
          "name": "",
          "type": "uint256"
        }
      ],
      "stateMutability": "view",
      "type": "function"
    },
    {
      "inputs": [
        {
          "internalType": "address",
          "name": "to",
          "type": "address"
        },
        {
          "internalType": "uint256",
          "name": "value",
          "type": "uint256"
        }
      ],
      "name": "transfer",
      "outputs": [
        {
          "internalType": "bool",
          "name": "",
          "type": "bool"
        }
      ],
      "stateMutability": "nonpayable",
      "type": "function"
    },
    {
      "inputs": [
        {
          "internalType": "address",
          "name": "from",
          "type": "address"
        },
        {
          "internalType": "address",
          "name": "to",
          "type": "address"
        },
        {
          "internalType": "uint256",
          "name": "value",
          "type": "uint256"
        }
      ],
      "name": "transferFrom",
      "outputs": [
        {
          "internalType": "bool",
          "name": "",
          "type": "bool"
        }
      ],
      "stateMutability": "nonpayable",
      "type": "function"
    },
    {
      "inputs": [
        {
          "internalType": "address",
          "name": "newOwner",
          "type": "address"
        }
      ],
      "name": "transferOwnership",
      "outputs": [],
      "stateMutability": "nonpayable",
      "type": "function"
    }
  ],
  "bytecode": "0x608060405234801561001057600080fd5b50336040518060400160405280600781526020017f4446546f6b656e000000000000000000000000000000000000000000000000008152506040518060400160405280600281526020017f4446000000000000000000000000000000000000000000000000000000000000815250816003908161008d919061072a565b50806004908161009d919061072a565b505050600073ffffffffffffffffffffffffffffffffffffffff168173ffffffffffffffffffffffffffffffffffffffff16036101125760006040517f1e4fbdf7000000000000000000000000000000000000000000000000000000008152600401610109919061083d565b60405180910390fd5b6101218161015e60201b60201c565b506101593361013461022460201b60201c565b600a61014091906109c7565b620f424061014e9190610a12565b61022d60201b60201c565b610ae9565b6000600560009054906101000a900473ffffffffffffffffffffffffffffffffffffffff16905081600560006101000a81548173ffffffffffffffffffffffffffffffffffffffff021916908373ffffffffffffffffffffffffffffffffffffffff1602179055508173ffffffffffffffffffffffffffffffffffffffff168173ffffffffffffffffffffffffffffffffffffffff167f8be0079c531659141344cd1fd0a4f28419497f9722a3daafe3b4186f6b6457e060405160405180910390a35050565b60006012905090565b600073ffffffffffffffffffffffffffffffffffffffff168273ffffffffffffffffffffffffffffffffffffffff160361029f5760006040517fec442f05000000000000000000000000000000000000000000000000000000008152600401610296919061083d565b60405180910390fd5b6102b1600083836102b560201b60201c565b5050565b600073ffffffffffffffffffffffffffffffffffffffff168373ffffffffffffffffffffffffffffffffffffffff16036103075780600260008282546102fb9190610a54565b925050819055506103da565b60008060008573ffffffffffffffffffffffffffffffffffffffff1673ffffffffffffffffffffffffffffffffffffffff16815260200190815260200160002054905081811015610393578381836040517fe450d38c00000000000000000000000000000000000000000000000000000000815260040161038a93929190610a97565b60405180910390fd5b8181036000808673ffffffffffffffffffffffffffffffffffffffff1673ffffffffffffffffffffffffffffffffffffffff16815260200190815260200160002081905550505b600073ffffffffffffffffffffffffffffffffffffffff168273ffffffffffffffffffffffffffffffffffffffff16036104235780600260008282540392505081905550610470565b806000808473ffffffffffffffffffffffffffffffffffffffff1673ffffffffffffffffffffffffffffffffffffffff168152602001908152602001600020600082825401925050819055505b8173ffffffffffffffffffffffffffffffffffffffff168373ffffffffffffffffffffffffffffffffffffffff167fddf252ad1be2c89b69c2b068fc378daa952ba7f163c4a11628f55a4df523b3ef836040516104cd9190610ace565b60405180910390a3505050565b600081519050919050565b7f4e487b7100000000000000000000000000000000000000000000000000000000600052604160045260246000fd5b7f4e487b7100000000000000000000000000000000000000000000000000000000600052602260045260246000fd5b6000600282049050600182168061055b57607f821691505b60208210810361056e5761056d610514565b5b50919050565b60008190508160005260206000209050919050565b60006020601f8301049050919050565b600082821b905092915050565b6000600883026105d67fffffffffffffffffffffffffffffffffffffffffffffffffffffffffffffffff82610599565b6105e08683610599565b95508019841693508086168417925050509392505050565b6000819050919050565b6000819050919050565b600061062761062261061d846105f8565b610602565b6105f8565b9050919050565b6000819050919050565b6106418361060c565b61065561064d8261062e565b8484546105a6565b825550505050565b600090565b61066a61065d565b610675818484610638565b505050565b5b818110156106995761068e600082610662565b60018101905061067b565b5050565b601f8211156106de576106af81610574565b6106b884610589565b810160208510156106c7578190505b6106db6106d385610589565b83018261067a565b50505b505050565b600082821c905092915050565b6000610701600019846008026106e3565b1980831691505092915050565b600061071a83836106f0565b9150826002028217905092915050565b610733826104da565b67ffffffffffffffff81111561074c5761074b6104e5565b5b6107568254610543565b61076182828561069d565b600060209050601f8311600181146107945760008415610782578287015190505b61078c858261070e565b8655506107f4565b601f1984166107a286610574565b60005b828110156107ca578489015182556001820191506020850194506020810190506107a5565b868310156107e757848901516107e3601f8916826106f0565b8355505b6001600288020188555050505b505050505050565b600073ffffffffffffffffffffffffffffffffffffffff82169050919050565b6000610827826107fc565b9050919050565b6108378161081c565b82525050565b6000602082019050610852600083018461082e565b92915050565b7f4e487b7100000000000000000000000000000000000000000000000000000000600052601160045260246000fd5b60008160011c9050919050565b6000808291508390505b60018511156108de578086048111156108ba576108b9610858565b5b60018516156108c95780820291505b80810290506108d785610887565b945061089e565b94509492505050565b6000826108f757600190506109b3565b8161090557600090506109b3565b816001811461091b576002811461092557610954565b60019150506109b3565b60ff84111561093757610936610858565b5b8360020a91508482111561094e5761094d610858565b5b506109b3565b5060208310610133831016604e8410600b84101617156109895782820a90508381111561098457610983610858565b5b6109b3565b6109968484846001610894565b925090508184048111156109ad576109ac610858565b5b81810290505b9392505050565b600060ff82169050919050565b60006109d2826105f8565b91506109dd836109ba565b9250610a0a7fffffffffffffffffffffffffffffffffffffffffffffffffffffffffffffffff84846108e7565b905092915050565b6000610a1d826105f8565b9150610a28836105f8565b9250828202610a36816105f8565b91508282048414831517610a4d57610a4c610858565b5b5092915050565b6000610a5f826105f8565b9150610a6a836105f8565b9250828201905080821115610a8257610a81610858565b5b92915050565b610a91816105f8565b82525050565b6000606082019050610aac600083018661082e565b610ab96020830185610a88565b610ac66040830184610a88565b949350505050565b6000602082019050610ae36000830184610a88565b92915050565b61139980610af86000396000f3fe608060405234801561001057600080fd5b50600436106100ea5760003560e01c8063715018a61161008c578063a9059cbb11610066578063a9059cbb1461023d578063aad3ec961461026d578063dd62ed3e14610289578063f2fde38b146102b9576100ea565b8063715018a6146101f75780638da5cb5b1461020157806395d89b411461021f576100ea565b806323b872dd116100c857806323b872dd1461015b578063270ef3851461018b578063313ce567146101a957806370a08231146101c7576100ea565b806306fdde03146100ef578063095ea7b31461010d57806318160ddd1461013d575b600080fd5b6100f76102d5565b6040516101049190610ea9565b60405180910390f35b61012760048036038101906101229190610f64565b610367565b6040516101349190610fbf565b60405180910390f35b61014561038a565b6040516101529190610fe9565b60405180910390f35b61017560048036038101906101709190611004565b610394565b6040516101829190610fbf565b60405180910390f35b6101936103c3565b6040516101a09190610fe9565b60405180910390f35b6101b16103d0565b6040516101be9190611073565b60405180910390f35b6101e160048036038101906101dc919061108e565b6103d9565b6040516101ee9190610fe9565b60405180910390f35b6101ff610421565b005b610209610435565b60405161021691906110ca565b60405180910390f35b61022761045f565b6040516102349190610ea9565b60405180910390f35b61025760048036038101906102529190610f64565b6104f1565b6040516102649190610fbf565b60405180910390f35b61028760048036038101906102829190610f64565b610514565b005b6102a3600480360381019061029e91906110e5565b610620565b6040516102b09190610fe9565b60405180910390f35b6102d360048036038101906102ce919061108e565b6106a7565b005b6060600380546102e490611154565b80601f016020809104026020016040519081016040528092919081815260200182805461031090611154565b801561035d5780601f106103325761010080835404028352916020019161035d565b820191906000526020600020905b81548152906001019060200180831161034057829003601f168201915b5050505050905090565b60008061037261072d565b905061037f818585610735565b600191505092915050565b6000600254905090565b60008061039f61072d565b90506103ac858285610747565b6103b78585856107dc565b60019150509392505050565b680ad78ebc5ac620000081565b60006012905090565b60008060008373ffffffffffffffffffffffffffffffffffffffff1673ffffffffffffffffffffffffffffffffffffffff168152602001908152602001600020549050919050565b6104296108d0565b6104336000610957565b565b6000600560009054906101000a900473ffffffffffffffffffffffffffffffffffffffff16905090565b60606004805461046e90611154565b80601f016020809104026020016040519081016040528092919081815260200182805461049a90611154565b80156104e75780601f106104bc576101008083540402835291602001916104e7565b820191906000526020600020905b8154815290600101906020018083116104ca57829003601f168201915b5050505050905090565b6000806104fc61072d565b90506105098185856107dc565b600191505092915050565b600073ffffffffffffffffffffffffffffffffffffffff168273ffffffffffffffffffffffffffffffffffffffff1603610583576040517f08c379a000000000000000000000000000000000000000000000000000000000815260040161057a906111d1565b60405180910390fd5b600081116105c6576040517f08c379a00000000000000000000000000000000000000000000000000000000081526004016105bd9061123d565b60405180910390fd5b806105d0306103d9565b1015610611576040517f08c379a0000000000000000000000000000000000000000000000000000000008152600401610608906112a9565b60405180910390fd5b61061c3083836107dc565b5050565b6000600160008473ffffffffffffffffffffffffffffffffffffffff1673ffffffffffffffffffffffffffffffffffffffff16815260200190815260200160002060008373ffffffffffffffffffffffffffffffffffffffff1673ffffffffffffffffffffffffffffffffffffffff16815260200190815260200160002054905092915050565b6106af6108d0565b600073ffffffffffffffffffffffffffffffffffffffff168173ffffffffffffffffffffffffffffffffffffffff16036107215760006040517f1e4fbdf700000000000000000000000000000000000000000000000000000000815260040161071891906110ca565b60405180910390fd5b61072a81610957565b50565b600033905090565b6107428383836001610a1d565b505050565b60006107538484610620565b90507fffffffffffffffffffffffffffffffffffffffffffffffffffffffffffffffff8110156107d657818110156107c6578281836040517ffb8f41b20000000000000000000000000000000000000000000000000000000081526004016107bd939291906112c9565b60405180910390fd5b6107d584848484036000610a1d565b5b50505050565b600073ffffffffffffffffffffffffffffffffffffffff168373ffffffffffffffffffffffffffffffffffffffff160361084e5760006040517f96c6fd1e00000000000000000000000000000000000000000000000000000000815260040161084591906110ca565b60405180910390fd5b600073ffffffffffffffffffffffffffffffffffffffff168273ffffffffffffffffffffffffffffffffffffffff16036108c05760006040517fec442f050000000000000000000000000000000000000000000000000000000081526004016108b791906110ca565b60405180910390fd5b6108cb838383610bf4565b505050565b6108d861072d565b73ffffffffffffffffffffffffffffffffffffffff166108f6610435565b73ffffffffffffffffffffffffffffffffffffffff16146109555761091961072d565b6040517f118cdaa700000000000000000000000000000000000000000000000000000000815260040161094c91906110ca565b60405180910390fd5b565b6000600560009054906101000a900473ffffffffffffffffffffffffffffffffffffffff16905081600560006101000a81548173ffffffffffffffffffffffffffffffffffffffff021916908373ffffffffffffffffffffffffffffffffffffffff1602179055508173ffffffffffffffffffffffffffffffffffffffff168173ffffffffffffffffffffffffffffffffffffffff167f8be0079c531659141344cd1fd0a4f28419497f9722a3daafe3b4186f6b6457e060405160405180910390a35050565b600073ffffffffffffffffffffffffffffffffffffffff168473ffffffffffffffffffffffffffffffffffffffff1603610a8f5760006040517fe602df05000000000000000000000000000000000000000000000000000000008152600401610a8691906110ca565b60405180910390fd5b600073ffffffffffffffffffffffffffffffffffffffff168373ffffffffffffffffffffffffffffffffffffffff1603610b015760006040517f94280d62000000000000000000000000000000000000000000000000000000008152600401610af891906110ca565b60405180910390fd5b81600160008673ffffffffffffffffffffffffffffffffffffffff1673ffffffffffffffffffffffffffffffffffffffff16815260200190815260200160002060008573ffffffffffffffffffffffffffffffffffffffff1673ffffffffffffffffffffffffffffffffffffffff168152602001908152602001600020819055508015610bee578273ffffffffffffffffffffffffffffffffffffffff168473ffffffffffffffffffffffffffffffffffffffff167f8c5be1e5ebec7d5bd14f71427d1e84f3dd0314c0f7b2291e5b200ac8c7c3b92584604051610be59190610fe9565b60405180910390a35b50505050565b600073ffffffffffffffffffffffffffffffffffffffff168373ffffffffffffffffffffffffffffffffffffffff1603610c46578060026000828254610c3a919061132f565b92505081905550610d19565b60008060008573ffffffffffffffffffffffffffffffffffffffff1673ffffffffffffffffffffffffffffffffffffffff16815260200190815260200160002054905081811015610cd2578381836040517fe450d38c000000000000000000000000000000000000000000000000000000008152600401610cc9939291906112c9565b60405180910390fd5b8181036000808673ffffffffffffffffffffffffffffffffffffffff1673ffffffffffffffffffffffffffffffffffffffff16815260200190815260200160002081905550505b600073ffffffffffffffffffffffffffffffffffffffff168273ffffffffffffffffffffffffffffffffffffffff1603610d625780600260008282540392505081905550610daf565b806000808473ffffffffffffffffffffffffffffffffffffffff1673ffffffffffffffffffffffffffffffffffffffff168152602001908152602001600020600082825401925050819055505b8173ffffffffffffffffffffffffffffffffffffffff168373ffffffffffffffffffffffffffffffffffffffff167fddf252ad1be2c89b69c2b068fc378daa952ba7f163c4a11628f55a4df523b3ef83604051610e0c9190610fe9565b60405180910390a3505050565b600081519050919050565b600082825260208201905092915050565b60005b83811015610e53578082015181840152602081019050610e38565b60008484015250505050565b6000601f19601f8301169050919050565b6000610e7b82610e19565b610e858185610e24565b9350610e95818560208601610e35565b610e9e81610e5f565b840191505092915050565b60006020820190508181036000830152610ec38184610e70565b905092915050565b600080fd5b600073ffffffffffffffffffffffffffffffffffffffff82169050919050565b6000610efb82610ed0565b9050919050565b610f0b81610ef0565b8114610f1657600080fd5b50565b600081359050610f2881610f02565b92915050565b6000819050919050565b610f4181610f2e565b8114610f4c57600080fd5b50565b600081359050610f5e81610f38565b92915050565b60008060408385031215610f7b57610f7a610ecb565b5b6000610f8985828601610f19565b9250506020610f9a85828601610f4f565b9150509250929050565b60008115159050919050565b610fb981610fa4565b82525050565b6000602082019050610fd46000830184610fb0565b92915050565b610fe381610f2e565b82525050565b6000602082019050610ffe6000830184610fda565b92915050565b60008060006060848603121561101d5761101c610ecb565b5b600061102b86828701610f19565b935050602061103c86828701610f19565b925050604061104d86828701610f4f565b9150509250925092565b600060ff82169050919050565b61106d81611057565b82525050565b60006020820190506110886000830184611064565b92915050565b6000602082840312156110a4576110a3610ecb565b5b60006110b284828501610f19565b91505092915050565b6110c481610ef0565b82525050565b60006020820190506110df60008301846110bb565b92915050565b600080604083850312156110fc576110fb610ecb565b5b600061110a85828601610f19565b925050602061111b85828601610f19565b9150509250929050565b7f4e487b7100000000000000000000000000000000000000000000000000000000600052602260045260246000fd5b6000600282049050600182168061116c57607f821691505b60208210810361117f5761117e611125565b5b50919050565b7f496e76616c696420726563697069656e74206164647265737300000000000000600082015250565b60006111bb601983610e24565b91506111c682611185565b602082019050919050565b600060208201905081810360008301526111ea816111ae565b9050919050565b7f416d6f756e74206d7573742062652067726561746572207468616e2030000000600082015250565b6000611227601d83610e24565b9150611232826111f1565b602082019050919050565b600060208201905081810360008301526112568161121a565b9050919050565b7f496e73756666696369656e7420746f6b656e7320696e20636f6e747261637400600082015250565b6000611293601f83610e24565b915061129e8261125d565b602082019050919050565b600060208201905081810360008301526112c281611286565b9050919050565b60006060820190506112de60008301866110bb565b6112eb6020830185610fda565b6112f86040830184610fda565b949350505050565b7f4e487b7100000000000000000000000000000000000000000000000000000000600052601160045260246000fd5b600061133a82610f2e565b915061134583610f2e565b925082820190508082111561135d5761135c611300565b5b9291505056fea2646970667358221220da2b16444e528d73df4725e302e991f3150aed9dd2020949c6c4135c7c519c9b64736f6c634300081c0033",
  "linkReferences": {},
  "deployedLinkReferences": {}
}